{
  "contractName": "Payment",
  "abi": [
    {
      "constant": true,
      "inputs": [],
      "name": "owner",
      "outputs": [
        {
          "name": "",
          "type": "address"
        }
      ],
      "payable": false,
      "stateMutability": "view",
      "type": "function"
    },
    {
      "constant": false,
      "inputs": [
        {
          "name": "newOwner",
          "type": "address"
        }
      ],
      "name": "transferOwnership",
      "outputs": [],
      "payable": false,
      "stateMutability": "nonpayable",
      "type": "function"
    },
    {
      "inputs": [
        {
          "name": "tokenAddress",
          "type": "address"
        },
        {
          "name": "toPay",
          "type": "address"
        }
      ],
      "payable": false,
      "stateMutability": "nonpayable",
      "type": "constructor"
    },
    {
      "anonymous": false,
      "inputs": [
        {
          "indexed": true,
          "name": "sender",
          "type": "address"
        },
        {
          "indexed": true,
          "name": "receiver",
          "type": "address"
        },
        {
          "indexed": true,
          "name": "amount",
          "type": "uint256"
        }
      ],
      "name": "LogPayment",
      "type": "event"
    },
    {
      "anonymous": false,
      "inputs": [
        {
          "indexed": true,
          "name": "previousOwner",
          "type": "address"
        },
        {
          "indexed": true,
          "name": "newOwner",
          "type": "address"
        }
      ],
      "name": "OwnershipTransferred",
      "type": "event"
    },
    {
      "constant": false,
      "inputs": [
        {
          "name": "tokenAmount",
          "type": "uint256"
        }
      ],
      "name": "pay",
      "outputs": [],
      "payable": false,
      "stateMutability": "nonpayable",
      "type": "function"
    },
    {
      "constant": false,
      "inputs": [
        {
          "name": "toPay",
          "type": "address"
        }
      ],
      "name": "setPaymentAddress",
      "outputs": [],
      "payable": false,
      "stateMutability": "nonpayable",
      "type": "function"
    }
  ],
  "bytecode": "0x6060604052341561000f57600080fd5b60405160408061038c833981016040528080519190602001805160008054600160a060020a03338116600160a060020a0319928316179092556001805496831696821696909617909555600280549190921694169390931790925550506103118061007b6000396000f3006060604052600436106100615763ffffffff7c01000000000000000000000000000000000000000000000000000000006000350416635e1e100481146100665780638da5cb5b14610087578063c290d691146100b6578063f2fde38b146100cc575b600080fd5b341561007157600080fd5b610085600160a060020a03600435166100eb565b005b341561009257600080fd5b61009a610135565b604051600160a060020a03909116815260200160405180910390f35b34156100c157600080fd5b610085600435610144565b34156100d757600080fd5b610085600160a060020a03600435166101ab565b60005433600160a060020a0390811691161461010657600080fd5b6002805473ffffffffffffffffffffffffffffffffffffffff1916600160a060020a0392909216919091179055565b600054600160a060020a031681565b60025460015461016991600160a060020a03918216913391168463ffffffff61024616565b6002548190600160a060020a039081169033167f55873509420566f2ba9013fa9144400d796d4e30af84b9957b5cb7512d6138af60405160405180910390a450565b60005433600160a060020a039081169116146101c657600080fd5b600160a060020a03811615156101db57600080fd5b600054600160a060020a0380831691167f8be0079c531659141344cd1fd0a4f28419497f9722a3daafe3b4186f6b6457e060405160405180910390a36000805473ffffffffffffffffffffffffffffffffffffffff1916600160a060020a0392909216919091179055565b83600160a060020a03166323b872dd8484846040517c010000000000000000000000000000000000000000000000000000000063ffffffff8616028152600160a060020a0393841660048201529190921660248201526044810191909152606401602060405180830381600087803b15156102c057600080fd5b5af115156102cd57600080fd5b5050506040518051905015156102df57fe5b505050505600a165627a7a723058209437f0b915679b73ff0c1bbccaf4e80da96e675e83d8acf41b290ad1b2f1d0cd0029",
  "source": "pragma solidity ^0.4.18;\n\nimport '../node_modules/zeppelin-solidity/contracts/token/ERC20/StandardToken.sol';\nimport '../node_modules/zeppelin-solidity/contracts/token/ERC20/SafeERC20.sol';\nimport '../node_modules/zeppelin-solidity/contracts/ownership/Ownable.sol';\n\ncontract Payment is Ownable {\n  using SafeERC20 for StandardToken;\n\n  StandardToken token;\n  address paymentAddress;\n\n  event LogPayment(address indexed sender, address indexed receiver, uint indexed amount);\n\n  function Payment(address tokenAddress, address toPay) public {\n    token = StandardToken(tokenAddress);\n    paymentAddress = toPay;\n  }\n\n\n  /**\n   * @dev Function to execute a tokenAmount token payment\n   * @param tokenAmount amount to be paid for payments\n   */\n  function pay(uint256 tokenAmount) public {\n    token.safeTransferFrom(msg.sender, paymentAddress, tokenAmount);\n    emit LogPayment(msg.sender, paymentAddress, tokenAmount);\n  }\n\n  /**\n   * @dev Function to change where to send payments\n   * @param toPay to receive payments\n   */\n  function setPaymentAddress(address toPay) public onlyOwner {\n    paymentAddress = toPay;\n  }\n}\n",
  "sourcePath": "/home/ubuntu/MVP/EthereumVanigTokenContract/contracts/Payment.sol",
  "compiler": {
    "name": "solc",
    "version": "0.4.21+commit.dfe3193c.Emscripten.clang"
  },
  "schemaVersion": "2.0.0",
  "updatedAt": "2018-04-16T06:59:20.824Z"
}