{
  "contractName": "Payment",
  "abi": [
    {
      "constant": true,
      "inputs": [],
      "name": "owner",
      "outputs": [
        {
          "name": "",
          "type": "address"
        }
      ],
      "payable": false,
      "stateMutability": "view",
      "type": "function"
    },
    {
      "constant": false,
      "inputs": [
        {
          "name": "newOwner",
          "type": "address"
        }
      ],
      "name": "transferOwnership",
      "outputs": [],
      "payable": false,
      "stateMutability": "nonpayable",
      "type": "function"
    },
    {
      "inputs": [
        {
          "name": "tokenAddress",
          "type": "address"
        },
        {
          "name": "toPay",
          "type": "address"
        }
      ],
      "payable": false,
      "stateMutability": "nonpayable",
      "type": "constructor"
    },
    {
      "anonymous": false,
      "inputs": [
        {
          "indexed": true,
          "name": "sender",
          "type": "address"
        },
        {
          "indexed": true,
          "name": "receiver",
          "type": "address"
        },
        {
          "indexed": true,
          "name": "amount",
          "type": "uint256"
        }
      ],
      "name": "LogPayment",
      "type": "event"
    },
    {
      "anonymous": false,
      "inputs": [
        {
          "indexed": true,
          "name": "previousOwner",
          "type": "address"
        },
        {
          "indexed": true,
          "name": "newOwner",
          "type": "address"
        }
      ],
      "name": "OwnershipTransferred",
      "type": "event"
    },
    {
      "constant": false,
      "inputs": [],
      "name": "pay",
      "outputs": [],
      "payable": false,
      "stateMutability": "nonpayable",
      "type": "function"
    },
    {
      "constant": false,
      "inputs": [
        {
          "name": "toPay",
          "type": "address"
        }
      ],
      "name": "setPaymentAddress",
      "outputs": [],
      "payable": false,
      "stateMutability": "nonpayable",
      "type": "function"
    }
  ],
  "bytecode": "0x6060604052341561000f57600080fd5b60405160408061038a833981016040528080519190602001805160008054600160a060020a03338116600160a060020a03199283161790925560018054968316968216969096179095556002805491909216941693909317909255505061030f8061007b6000396000f3006060604052600436106100615763ffffffff7c01000000000000000000000000000000000000000000000000000000006000350416631b9265b881146100665780635e1e10041461007b5780638da5cb5b1461009a578063f2fde38b146100c9575b600080fd5b341561007157600080fd5b6100796100e8565b005b341561008657600080fd5b610079600160a060020a0360043516610150565b34156100a557600080fd5b6100ad61019a565b604051600160a060020a03909116815260200160405180910390f35b34156100d457600080fd5b610079600160a060020a03600435166101a9565b60025460015461010e91600160a060020a0391821691339116606463ffffffff61024416565b600254606490600160a060020a039081169033167f55873509420566f2ba9013fa9144400d796d4e30af84b9957b5cb7512d6138af60405160405180910390a4565b60005433600160a060020a0390811691161461016b57600080fd5b6002805473ffffffffffffffffffffffffffffffffffffffff1916600160a060020a0392909216919091179055565b600054600160a060020a031681565b60005433600160a060020a039081169116146101c457600080fd5b600160a060020a03811615156101d957600080fd5b600054600160a060020a0380831691167f8be0079c531659141344cd1fd0a4f28419497f9722a3daafe3b4186f6b6457e060405160405180910390a36000805473ffffffffffffffffffffffffffffffffffffffff1916600160a060020a0392909216919091179055565b83600160a060020a03166323b872dd8484846040517c010000000000000000000000000000000000000000000000000000000063ffffffff8616028152600160a060020a0393841660048201529190921660248201526044810191909152606401602060405180830381600087803b15156102be57600080fd5b5af115156102cb57600080fd5b5050506040518051905015156102dd57fe5b505050505600a165627a7a723058203d4ac775b427eb728ba37f54fd334c6528451cdd0162b780adf1fec67264dd0f0029",
  "source": "pragma solidity ^0.4.18;\r\n\r\nimport '../node_modules/zeppelin-solidity/contracts/token/ERC20/StandardToken.sol';\r\nimport '../node_modules/zeppelin-solidity/contracts/token/ERC20/SafeERC20.sol';\r\nimport '../node_modules/zeppelin-solidity/contracts/ownership/Ownable.sol';\r\n\r\ncontract Payment is Ownable {\r\n  using SafeERC20 for StandardToken;\r\n\r\n  StandardToken token;\r\n  address paymentAddress;\r\n\r\n  event LogPayment(address indexed sender, address indexed receiver, uint indexed amount);\r\n  \r\n  function Payment(address tokenAddress, address toPay) public {\r\n    token = StandardToken(tokenAddress);\r\n    paymentAddress = toPay;\r\n  }\r\n\r\n\r\n  /**\r\n   * @dev Function to execute a 100 token payment\r\n   */\r\n  function pay() public {\r\n    token.safeTransferFrom(msg.sender, paymentAddress, 100);\r\n    emit LogPayment(msg.sender, paymentAddress, 100);\r\n  }\r\n\r\n  /**\r\n   * @dev Function to change where to send payments\r\n   * @param toPay to receive payments\r\n   */\r\n  function setPaymentAddress(address toPay) public onlyOwner {\r\n    paymentAddress = toPay;\r\n  }\r\n}",
  "sourcePath": "/home/ubuntu/VanigPro/Web/contracts/Payment.sol",
  "compiler": {
    "name": "solc",
    "version": "0.4.21+commit.dfe3193c.Emscripten.clang"
  },
  "schemaVersion": "2.0.0",
  "updatedAt": "2018-04-02T06:49:17.591Z"
}