{
  "contractName": "Payment",
  "abi": [
    {
      "constant": true,
      "inputs": [],
      "name": "owner",
      "outputs": [
        {
          "name": "",
          "type": "address"
        }
      ],
      "payable": false,
      "stateMutability": "view",
      "type": "function"
    },
    {
      "constant": false,
      "inputs": [
        {
          "name": "newOwner",
          "type": "address"
        }
      ],
      "name": "transferOwnership",
      "outputs": [],
      "payable": false,
      "stateMutability": "nonpayable",
      "type": "function"
    },
    {
      "inputs": [
        {
          "name": "tokenAddress",
          "type": "address"
        },
        {
          "name": "toPay",
          "type": "address"
        }
      ],
      "payable": false,
      "stateMutability": "nonpayable",
      "type": "constructor"
    },
    {
      "anonymous": false,
      "inputs": [
        {
          "indexed": true,
          "name": "sender",
          "type": "address"
        },
        {
          "indexed": true,
          "name": "receiver",
          "type": "address"
        },
        {
          "indexed": true,
          "name": "amount",
          "type": "uint256"
        }
      ],
      "name": "LogPayment",
      "type": "event"
    },
    {
      "anonymous": false,
      "inputs": [
        {
          "indexed": true,
          "name": "previousOwner",
          "type": "address"
        },
        {
          "indexed": true,
          "name": "newOwner",
          "type": "address"
        }
      ],
      "name": "OwnershipTransferred",
      "type": "event"
    },
    {
      "constant": false,
      "inputs": [],
      "name": "pay",
      "outputs": [],
      "payable": false,
      "stateMutability": "nonpayable",
      "type": "function"
    },
    {
      "constant": false,
      "inputs": [
        {
          "name": "toPay",
          "type": "address"
        }
      ],
      "name": "setPaymentAddress",
      "outputs": [],
      "payable": false,
      "stateMutability": "nonpayable",
      "type": "function"
    }
  ],
  "bytecode": "0x6060604052341561000f57600080fd5b604051604080610388833981016040528080519190602001805160008054600160a060020a03338116600160a060020a03199283161790925560018054968316968216969096179095556002805491909216941693909317909255505061030d8061007b6000396000f3006060604052600436106100615763ffffffff7c01000000000000000000000000000000000000000000000000000000006000350416631b9265b881146100665780635e1e10041461007b5780638da5cb5b1461009a578063f2fde38b146100c9575b600080fd5b341561007157600080fd5b6100796100e8565b005b341561008657600080fd5b610079600160a060020a036004351661014e565b34156100a557600080fd5b6100ad610198565b604051600160a060020a03909116815260200160405180910390f35b34156100d457600080fd5b610079600160a060020a03600435166101a7565b60025460015461010d91600160a060020a03918216913391163463ffffffff61024216565b6002543490600160a060020a039081169033167f55873509420566f2ba9013fa9144400d796d4e30af84b9957b5cb7512d6138af60405160405180910390a4565b60005433600160a060020a0390811691161461016957600080fd5b6002805473ffffffffffffffffffffffffffffffffffffffff1916600160a060020a0392909216919091179055565b600054600160a060020a031681565b60005433600160a060020a039081169116146101c257600080fd5b600160a060020a03811615156101d757600080fd5b600054600160a060020a0380831691167f8be0079c531659141344cd1fd0a4f28419497f9722a3daafe3b4186f6b6457e060405160405180910390a36000805473ffffffffffffffffffffffffffffffffffffffff1916600160a060020a0392909216919091179055565b83600160a060020a03166323b872dd8484846040517c010000000000000000000000000000000000000000000000000000000063ffffffff8616028152600160a060020a0393841660048201529190921660248201526044810191909152606401602060405180830381600087803b15156102bc57600080fd5b5af115156102c957600080fd5b5050506040518051905015156102db57fe5b505050505600a165627a7a72305820171b26d23ee388f7583670f26c97aba10f2cc426a1cfc0dc998eb4229ce103150029",
  "source": "pragma solidity ^0.4.18;\n\nimport '../node_modules/zeppelin-solidity/contracts/token/ERC20/StandardToken.sol';\nimport '../node_modules/zeppelin-solidity/contracts/token/ERC20/SafeERC20.sol';\nimport '../node_modules/zeppelin-solidity/contracts/ownership/Ownable.sol';\n\ncontract Payment is Ownable {\n  using SafeERC20 for StandardToken;\n\n  StandardToken token;\n  address paymentAddress;\n\n  event LogPayment(address indexed sender, address indexed receiver, uint indexed amount);\n\n  function Payment(address tokenAddress, address toPay) public {\n    token = StandardToken(tokenAddress);\n    paymentAddress = toPay;\n  }\n\n\n  /**\n   * @dev Function to execute a tokenAmount token payment\n   */\n  function pay() public {\n    token.safeTransferFrom(msg.sender, paymentAddress, msg.value);\n    emit LogPayment(msg.sender, paymentAddress, msg.value);\n  }\n\n  /**\n   * @dev Function to change where to send payments\n   * @param toPay to receive payments\n   */\n  function setPaymentAddress(address toPay) public onlyOwner {\n    paymentAddress = toPay;\n  }\n}\n",
  "sourcePath": "/home/ubuntu/MVP/EthereumVanigTokenContract/contracts/Payment.sol",
  "compiler": {
    "name": "solc",
    "version": "0.4.21+commit.dfe3193c.Emscripten.clang"
  },
  "schemaVersion": "2.0.0",
  "updatedAt": "2018-04-16T19:00:06.416Z"
}